{
  "contractName": "WIP",
  "abi": [
    {
      "inputs": [],
      "stateMutability": "nonpayable",
      "type": "constructor"
    },
    {
      "anonymous": false,
      "inputs": [
        {
          "indexed": true,
          "internalType": "address",
          "name": "owner",
          "type": "address"
        },
        {
          "indexed": true,
          "internalType": "address",
          "name": "spender",
          "type": "address"
        },
        {
          "indexed": false,
          "internalType": "uint256",
          "name": "value",
          "type": "uint256"
        }
      ],
      "name": "Approval",
      "type": "event"
    },
    {
      "anonymous": false,
      "inputs": [
        {
          "indexed": true,
          "internalType": "address",
          "name": "delegator",
          "type": "address"
        },
        {
          "indexed": true,
          "internalType": "address",
          "name": "fromDelegate",
          "type": "address"
        },
        {
          "indexed": true,
          "internalType": "address",
          "name": "toDelegate",
          "type": "address"
        }
      ],
      "name": "DelegateChanged",
      "type": "event"
    },
    {
      "anonymous": false,
      "inputs": [
        {
          "indexed": true,
          "internalType": "address",
          "name": "delegate",
          "type": "address"
        },
        {
          "indexed": false,
          "internalType": "uint256",
          "name": "previousBalance",
          "type": "uint256"
        },
        {
          "indexed": false,
          "internalType": "uint256",
          "name": "newBalance",
          "type": "uint256"
        }
      ],
      "name": "DelegateVotesChanged",
      "type": "event"
    },
    {
      "anonymous": false,
      "inputs": [
        {
          "indexed": true,
          "internalType": "address",
          "name": "previousOwner",
          "type": "address"
        },
        {
          "indexed": true,
          "internalType": "address",
          "name": "newOwner",
          "type": "address"
        }
      ],
      "name": "OwnershipTransferred",
      "type": "event"
    },
    {
      "anonymous": false,
      "inputs": [
        {
          "indexed": false,
          "internalType": "address",
          "name": "account",
          "type": "address"
        }
      ],
      "name": "Paused",
      "type": "event"
    },
    {
      "anonymous": false,
      "inputs": [
        {
          "indexed": true,
          "internalType": "address",
          "name": "from",
          "type": "address"
        },
        {
          "indexed": true,
          "internalType": "address",
          "name": "to",
          "type": "address"
        },
        {
          "indexed": false,
          "internalType": "uint256",
          "name": "value",
          "type": "uint256"
        }
      ],
      "name": "Transfer",
      "type": "event"
    },
    {
      "anonymous": false,
      "inputs": [
        {
          "indexed": false,
          "internalType": "address",
          "name": "account",
          "type": "address"
        }
      ],
      "name": "Unpaused",
      "type": "event"
    },
    {
      "inputs": [],
      "name": "DOMAIN_SEPARATOR",
      "outputs": [
        {
          "internalType": "bytes32",
          "name": "",
          "type": "bytes32"
        }
      ],
      "stateMutability": "view",
      "type": "function",
      "constant": true
    },
    {
      "inputs": [
        {
          "internalType": "address",
          "name": "owner",
          "type": "address"
        },
        {
          "internalType": "address",
          "name": "spender",
          "type": "address"
        }
      ],
      "name": "allowance",
      "outputs": [
        {
          "internalType": "uint256",
          "name": "",
          "type": "uint256"
        }
      ],
      "stateMutability": "view",
      "type": "function",
      "constant": true
    },
    {
      "inputs": [
        {
          "internalType": "address",
          "name": "spender",
          "type": "address"
        },
        {
          "internalType": "uint256",
          "name": "amount",
          "type": "uint256"
        }
      ],
      "name": "approve",
      "outputs": [
        {
          "internalType": "bool",
          "name": "",
          "type": "bool"
        }
      ],
      "stateMutability": "nonpayable",
      "type": "function"
    },
    {
      "inputs": [
        {
          "internalType": "address",
          "name": "account",
          "type": "address"
        }
      ],
      "name": "balanceOf",
      "outputs": [
        {
          "internalType": "uint256",
          "name": "",
          "type": "uint256"
        }
      ],
      "stateMutability": "view",
      "type": "function",
      "constant": true
    },
    {
      "inputs": [
        {
          "internalType": "uint256",
          "name": "amount",
          "type": "uint256"
        }
      ],
      "name": "burn",
      "outputs": [],
      "stateMutability": "nonpayable",
      "type": "function"
    },
    {
      "inputs": [
        {
          "internalType": "address",
          "name": "account",
          "type": "address"
        },
        {
          "internalType": "uint256",
          "name": "amount",
          "type": "uint256"
        }
      ],
      "name": "burnFrom",
      "outputs": [],
      "stateMutability": "nonpayable",
      "type": "function"
    },
    {
      "inputs": [
        {
          "internalType": "address",
          "name": "account",
          "type": "address"
        },
        {
          "internalType": "uint32",
          "name": "pos",
          "type": "uint32"
        }
      ],
      "name": "checkpoints",
      "outputs": [
        {
          "components": [
            {
              "internalType": "uint32",
              "name": "fromBlock",
              "type": "uint32"
            },
            {
              "internalType": "uint224",
              "name": "votes",
              "type": "uint224"
            }
          ],
          "internalType": "struct ERC20Votes.Checkpoint",
          "name": "",
          "type": "tuple"
        }
      ],
      "stateMutability": "view",
      "type": "function",
      "constant": true
    },
    {
      "inputs": [],
      "name": "decimals",
      "outputs": [
        {
          "internalType": "uint8",
          "name": "",
          "type": "uint8"
        }
      ],
      "stateMutability": "view",
      "type": "function",
      "constant": true
    },
    {
      "inputs": [
        {
          "internalType": "address",
          "name": "spender",
          "type": "address"
        },
        {
          "internalType": "uint256",
          "name": "subtractedValue",
          "type": "uint256"
        }
      ],
      "name": "decreaseAllowance",
      "outputs": [
        {
          "internalType": "bool",
          "name": "",
          "type": "bool"
        }
      ],
      "stateMutability": "nonpayable",
      "type": "function"
    },
    {
      "inputs": [
        {
          "internalType": "address",
          "name": "delegatee",
          "type": "address"
        }
      ],
      "name": "delegate",
      "outputs": [],
      "stateMutability": "nonpayable",
      "type": "function"
    },
    {
      "inputs": [
        {
          "internalType": "address",
          "name": "delegatee",
          "type": "address"
        },
        {
          "internalType": "uint256",
          "name": "nonce",
          "type": "uint256"
        },
        {
          "internalType": "uint256",
          "name": "expiry",
          "type": "uint256"
        },
        {
          "internalType": "uint8",
          "name": "v",
          "type": "uint8"
        },
        {
          "internalType": "bytes32",
          "name": "r",
          "type": "bytes32"
        },
        {
          "internalType": "bytes32",
          "name": "s",
          "type": "bytes32"
        }
      ],
      "name": "delegateBySig",
      "outputs": [],
      "stateMutability": "nonpayable",
      "type": "function"
    },
    {
      "inputs": [
        {
          "internalType": "address",
          "name": "account",
          "type": "address"
        }
      ],
      "name": "delegates",
      "outputs": [
        {
          "internalType": "address",
          "name": "",
          "type": "address"
        }
      ],
      "stateMutability": "view",
      "type": "function",
      "constant": true
    },
    {
      "inputs": [
        {
          "internalType": "uint256",
          "name": "blockNumber",
          "type": "uint256"
        }
      ],
      "name": "getPastTotalSupply",
      "outputs": [
        {
          "internalType": "uint256",
          "name": "",
          "type": "uint256"
        }
      ],
      "stateMutability": "view",
      "type": "function",
      "constant": true
    },
    {
      "inputs": [
        {
          "internalType": "address",
          "name": "account",
          "type": "address"
        },
        {
          "internalType": "uint256",
          "name": "blockNumber",
          "type": "uint256"
        }
      ],
      "name": "getPastVotes",
      "outputs": [
        {
          "internalType": "uint256",
          "name": "",
          "type": "uint256"
        }
      ],
      "stateMutability": "view",
      "type": "function",
      "constant": true
    },
    {
      "inputs": [
        {
          "internalType": "address",
          "name": "account",
          "type": "address"
        }
      ],
      "name": "getVotes",
      "outputs": [
        {
          "internalType": "uint256",
          "name": "",
          "type": "uint256"
        }
      ],
      "stateMutability": "view",
      "type": "function",
      "constant": true
    },
    {
      "inputs": [
        {
          "internalType": "address",
          "name": "spender",
          "type": "address"
        },
        {
          "internalType": "uint256",
          "name": "addedValue",
          "type": "uint256"
        }
      ],
      "name": "increaseAllowance",
      "outputs": [
        {
          "internalType": "bool",
          "name": "",
          "type": "bool"
        }
      ],
      "stateMutability": "nonpayable",
      "type": "function"
    },
    {
      "inputs": [],
      "name": "name",
      "outputs": [
        {
          "internalType": "string",
          "name": "",
          "type": "string"
        }
      ],
      "stateMutability": "view",
      "type": "function",
      "constant": true
    },
    {
      "inputs": [
        {
          "internalType": "address",
          "name": "owner",
          "type": "address"
        }
      ],
      "name": "nonces",
      "outputs": [
        {
          "internalType": "uint256",
          "name": "",
          "type": "uint256"
        }
      ],
      "stateMutability": "view",
      "type": "function",
      "constant": true
    },
    {
      "inputs": [
        {
          "internalType": "address",
          "name": "account",
          "type": "address"
        }
      ],
      "name": "numCheckpoints",
      "outputs": [
        {
          "internalType": "uint32",
          "name": "",
          "type": "uint32"
        }
      ],
      "stateMutability": "view",
      "type": "function",
      "constant": true
    },
    {
      "inputs": [],
      "name": "owner",
      "outputs": [
        {
          "internalType": "address",
          "name": "",
          "type": "address"
        }
      ],
      "stateMutability": "view",
      "type": "function",
      "constant": true
    },
    {
      "inputs": [],
      "name": "paused",
      "outputs": [
        {
          "internalType": "bool",
          "name": "",
          "type": "bool"
        }
      ],
      "stateMutability": "view",
      "type": "function",
      "constant": true
    },
    {
      "inputs": [
        {
          "internalType": "address",
          "name": "owner",
          "type": "address"
        },
        {
          "internalType": "address",
          "name": "spender",
          "type": "address"
        },
        {
          "internalType": "uint256",
          "name": "value",
          "type": "uint256"
        },
        {
          "internalType": "uint256",
          "name": "deadline",
          "type": "uint256"
        },
        {
          "internalType": "uint8",
          "name": "v",
          "type": "uint8"
        },
        {
          "internalType": "bytes32",
          "name": "r",
          "type": "bytes32"
        },
        {
          "internalType": "bytes32",
          "name": "s",
          "type": "bytes32"
        }
      ],
      "name": "permit",
      "outputs": [],
      "stateMutability": "nonpayable",
      "type": "function"
    },
    {
      "inputs": [],
      "name": "renounceOwnership",
      "outputs": [],
      "stateMutability": "nonpayable",
      "type": "function"
    },
    {
      "inputs": [],
      "name": "symbol",
      "outputs": [
        {
          "internalType": "string",
          "name": "",
          "type": "string"
        }
      ],
      "stateMutability": "view",
      "type": "function",
      "constant": true
    },
    {
      "inputs": [],
      "name": "totalSupply",
      "outputs": [
        {
          "internalType": "uint256",
          "name": "",
          "type": "uint256"
        }
      ],
      "stateMutability": "view",
      "type": "function",
      "constant": true
    },
    {
      "inputs": [
        {
          "internalType": "address",
          "name": "recipient",
          "type": "address"
        },
        {
          "internalType": "uint256",
          "name": "amount",
          "type": "uint256"
        }
      ],
      "name": "transfer",
      "outputs": [
        {
          "internalType": "bool",
          "name": "",
          "type": "bool"
        }
      ],
      "stateMutability": "nonpayable",
      "type": "function"
    },
    {
      "inputs": [
        {
          "internalType": "address",
          "name": "sender",
          "type": "address"
        },
        {
          "internalType": "address",
          "name": "recipient",
          "type": "address"
        },
        {
          "internalType": "uint256",
          "name": "amount",
          "type": "uint256"
        }
      ],
      "name": "transferFrom",
      "outputs": [
        {
          "internalType": "bool",
          "name": "",
          "type": "bool"
        }
      ],
      "stateMutability": "nonpayable",
      "type": "function"
    },
    {
      "inputs": [
        {
          "internalType": "address",
          "name": "newOwner",
          "type": "address"
        }
      ],
      "name": "transferOwnership",
      "outputs": [],
      "stateMutability": "nonpayable",
      "type": "function"
    },
    {
      "inputs": [],
      "name": "pause",
      "outputs": [],
      "stateMutability": "nonpayable",
      "type": "function"
    },
    {
      "inputs": [],
      "name": "unpause",
      "outputs": [],
      "stateMutability": "nonpayable",
      "type": "function"
    },
    {
      "inputs": [
        {
          "internalType": "address",
          "name": "to",
          "type": "address"
        },
        {
          "internalType": "uint256",
          "name": "amount",
          "type": "uint256"
        }
      ],
      "name": "mint",
      "outputs": [],
      "stateMutability": "nonpayable",
      "type": "function"
    }
  ],
  "bytecode": "0x6101406040527f6e71edae12b1b97f4d1f60370fef10105fa2faae0126114a169c64845d6126c9610120908152503480156200003a57600080fd5b506040518060400160405280600381526020017f5749500000000000000000000000000000000000000000000000000000000000815250806040518060400160405280600181526020017f31000000000000000000000000000000000000000000000000000000000000008152506040518060400160405280600381526020017f57495000000000000000000000000000000000000000000000000000000000008152506040518060400160405280600381526020017f574950000000000000000000000000000000000000000000000000000000000081525081600390805190602001906200012c92919062000d08565b5080600490805190602001906200014592919062000d08565b5050506000600560006101000a81548160ff02191690831515021790555062000183620001776200024660201b60201c565b6200024e60201b60201c565b60008280519060200120905060008280519060200120905060007f8b73c3c69bb8fe3d512ecc4cf759cc79239f7b179b0ffacaa9a75d522b39400f90508260c081815250508160e081815250504660a08181525050620001eb8184846200031460201b60201c565b608081815250508061010081815250505050505050506200024033620002166200035060201b60201c565b600a62000224919062000f52565b620f424062000234919062000fa3565b6200035960201b60201c565b62001505565b600033905090565b6000600560019054906101000a900473ffffffffffffffffffffffffffffffffffffffff16905081600560016101000a81548173ffffffffffffffffffffffffffffffffffffffff021916908373ffffffffffffffffffffffffffffffffffffffff1602179055508173ffffffffffffffffffffffffffffffffffffffff168173ffffffffffffffffffffffffffffffffffffffff167f8be0079c531659141344cd1fd0a4f28419497f9722a3daafe3b4186f6b6457e060405160405180910390a35050565b600083838346306040516020016200033195949392919062001075565b6040516020818303038152906040528051906020012090509392505050565b60006012905090565b6200037082826200037460201b620015761760201c565b5050565b6200038b82826200043260201b620016031760201c565b6200039b620005ab60201b60201c565b7bffffffffffffffffffffffffffffffffffffffffffffffffffffffff16620003c9620005cf60201b60201c565b11156200040d576040517f08c379a0000000000000000000000000000000000000000000000000000000008152600401620004049062001159565b60405180910390fd5b6200042c6009620005d960201b620017631783620005f160201b60201c565b50505050565b600073ffffffffffffffffffffffffffffffffffffffff168273ffffffffffffffffffffffffffffffffffffffff161415620004a5576040517f08c379a00000000000000000000000000000000000000000000000000000000081526004016200049c90620011cb565b60405180910390fd5b620004b960008383620008a260201b60201c565b8060026000828254620004cd9190620011ed565b92505081905550806000808473ffffffffffffffffffffffffffffffffffffffff1673ffffffffffffffffffffffffffffffffffffffff1681526020019081526020016000206000828254620005249190620011ed565b925050819055508173ffffffffffffffffffffffffffffffffffffffff16600073ffffffffffffffffffffffffffffffffffffffff167fddf252ad1be2c89b69c2b068fc378daa952ba7f163c4a11628f55a4df523b3ef836040516200058b91906200124a565b60405180910390a3620005a7600083836200091260201b60201c565b5050565b60007bffffffffffffffffffffffffffffffffffffffffffffffffffffffff905090565b6000600254905090565b60008183620005e99190620011ed565b905092915050565b6000806000858054905090506000811462000666578560018262000616919062001267565b815481106200062a5762000629620012a2565b5b9060005260206000200160000160049054906101000a90047bffffffffffffffffffffffffffffffffffffffffffffffffffffffff1662000669565b60005b7bffffffffffffffffffffffffffffffffffffffffffffffffffffffff1692506200069583858760201c565b9150600081118015620006ee57504386600183620006b4919062001267565b81548110620006c857620006c7620012a2565b5b9060005260206000200160000160009054906101000a900463ffffffff1663ffffffff16145b156200078f576200070a826200092f60201b620017791760201c565b866001836200071a919062001267565b815481106200072e576200072d620012a2565b5b9060005260206000200160000160046101000a8154817bffffffffffffffffffffffffffffffffffffffffffffffffffffffff02191690837bffffffffffffffffffffffffffffffffffffffffffffffffffffffff16021790555062000899565b856040518060400160405280620007b1436200099d60201b620017e41760201c565b63ffffffff168152602001620007d2856200092f60201b620017791760201c565b7bffffffffffffffffffffffffffffffffffffffffffffffffffffffff168152509080600181540180825580915050600190039060005260206000200160009091909190915060008201518160000160006101000a81548163ffffffff021916908363ffffffff16021790555060208201518160000160046101000a8154817bffffffffffffffffffffffffffffffffffffffffffffffffffffffff02191690837bffffffffffffffffffffffffffffffffffffffffffffffffffffffff16021790555050505b50935093915050565b620008b2620009f360201b60201c565b15620008f5576040517f08c379a0000000000000000000000000000000000000000000000000000000008152600401620008ec9062001321565b60405180910390fd5b6200090d83838362000a0a60201b620018371760201c565b505050565b6200092a83838362000a0f60201b6200183c1760201c565b505050565b60007bffffffffffffffffffffffffffffffffffffffffffffffffffffffff801682111562000995576040517f08c379a00000000000000000000000000000000000000000000000000000000081526004016200098c90620013b9565b60405180910390fd5b819050919050565b600063ffffffff8016821115620009eb576040517f08c379a0000000000000000000000000000000000000000000000000000000008152600401620009e29062001451565b60405180910390fd5b819050919050565b6000600560009054906101000a900460ff16905090565b505050565b62000a2783838362000a5f60201b620018671760201c565b62000a5a62000a3c8462000a6460201b60201c565b62000a4d8462000a6460201b60201c565b8362000acd60201b60201c565b505050565b505050565b6000600760008373ffffffffffffffffffffffffffffffffffffffff1673ffffffffffffffffffffffffffffffffffffffff16815260200190815260200160002060009054906101000a900473ffffffffffffffffffffffffffffffffffffffff169050919050565b8173ffffffffffffffffffffffffffffffffffffffff168373ffffffffffffffffffffffffffffffffffffffff161415801562000b0a5750600081115b1562000ceb57600073ffffffffffffffffffffffffffffffffffffffff168373ffffffffffffffffffffffffffffffffffffffff161462000bfd5760008062000ba4600860008773ffffffffffffffffffffffffffffffffffffffff1673ffffffffffffffffffffffffffffffffffffffff16815260200190815260200160002062000cf060201b6200186c1785620005f160201b60201c565b915091508473ffffffffffffffffffffffffffffffffffffffff167fdec2bacdd2f05b59de34da9b523dff8be42e5e38e818c82fdb0bae774387a724838360405162000bf292919062001473565b60405180910390a250505b600073ffffffffffffffffffffffffffffffffffffffff168273ffffffffffffffffffffffffffffffffffffffff161462000cea5760008062000c91600860008673ffffffffffffffffffffffffffffffffffffffff1673ffffffffffffffffffffffffffffffffffffffff168152602001908152602001600020620005d960201b620017631785620005f160201b60201c565b915091508373ffffffffffffffffffffffffffffffffffffffff167fdec2bacdd2f05b59de34da9b523dff8be42e5e38e818c82fdb0bae774387a724838360405162000cdf92919062001473565b60405180910390a250505b5b505050565b6000818362000d00919062001267565b905092915050565b82805462000d1690620014cf565b90600052602060002090601f01602090048101928262000d3a576000855562000d86565b82601f1062000d5557805160ff191683800117855562000d86565b8280016001018555821562000d86579182015b8281111562000d8557825182559160200191906001019062000d68565b5b50905062000d95919062000d99565b5090565b5b8082111562000db457600081600090555060010162000d9a565b5090565b7f4e487b7100000000000000000000000000000000000000000000000000000000600052601160045260246000fd5b60008160011c9050919050565b6000808291508390505b600185111562000e465780860481111562000e1e5762000e1d62000db8565b5b600185161562000e2e5780820291505b808102905062000e3e8562000de7565b945062000dfe565b94509492505050565b60008262000e61576001905062000f34565b8162000e71576000905062000f34565b816001811462000e8a576002811462000e955762000ecb565b600191505062000f34565b60ff84111562000eaa5762000ea962000db8565b5b8360020a91508482111562000ec45762000ec362000db8565b5b5062000f34565b5060208310610133831016604e8410600b841016171562000f055782820a90508381111562000eff5762000efe62000db8565b5b62000f34565b62000f14848484600162000df4565b9250905081840481111562000f2e5762000f2d62000db8565b5b81810290505b9392505050565b6000819050919050565b600060ff82169050919050565b600062000f5f8262000f3b565b915062000f6c8362000f45565b925062000f9b7fffffffffffffffffffffffffffffffffffffffffffffffffffffffffffffffff848462000e4f565b905092915050565b600062000fb08262000f3b565b915062000fbd8362000f3b565b9250817fffffffffffffffffffffffffffffffffffffffffffffffffffffffffffffffff048311821515161562000ff95762000ff862000db8565b5b828202905092915050565b6000819050919050565b620010198162001004565b82525050565b6200102a8162000f3b565b82525050565b600073ffffffffffffffffffffffffffffffffffffffff82169050919050565b60006200105d8262001030565b9050919050565b6200106f8162001050565b82525050565b600060a0820190506200108c60008301886200100e565b6200109b60208301876200100e565b620010aa60408301866200100e565b620010b960608301856200101f565b620010c8608083018462001064565b9695505050505050565b600082825260208201905092915050565b7f4552433230566f7465733a20746f74616c20737570706c79207269736b73206f60008201527f766572666c6f77696e6720766f74657300000000000000000000000000000000602082015250565b600062001141603083620010d2565b91506200114e82620010e3565b604082019050919050565b60006020820190508181036000830152620011748162001132565b9050919050565b7f45524332303a206d696e7420746f20746865207a65726f206164647265737300600082015250565b6000620011b3601f83620010d2565b9150620011c0826200117b565b602082019050919050565b60006020820190508181036000830152620011e681620011a4565b9050919050565b6000620011fa8262000f3b565b9150620012078362000f3b565b9250827fffffffffffffffffffffffffffffffffffffffffffffffffffffffffffffffff038211156200123f576200123e62000db8565b5b828201905092915050565b60006020820190506200126160008301846200101f565b92915050565b6000620012748262000f3b565b9150620012818362000f3b565b92508282101562001297576200129662000db8565b5b828203905092915050565b7f4e487b7100000000000000000000000000000000000000000000000000000000600052603260045260246000fd5b7f5061757361626c653a2070617573656400000000000000000000000000000000600082015250565b600062001309601083620010d2565b91506200131682620012d1565b602082019050919050565b600060208201905081810360008301526200133c81620012fa565b9050919050565b7f53616665436173743a2076616c756520646f65736e27742066697420696e203260008201527f3234206269747300000000000000000000000000000000000000000000000000602082015250565b6000620013a1602783620010d2565b9150620013ae8262001343565b604082019050919050565b60006020820190508181036000830152620013d48162001392565b9050919050565b7f53616665436173743a2076616c756520646f65736e27742066697420696e203360008201527f3220626974730000000000000000000000000000000000000000000000000000602082015250565b600062001439602683620010d2565b91506200144682620013db565b604082019050919050565b600060208201905081810360008301526200146c816200142a565b9050919050565b60006040820190506200148a60008301856200101f565b6200149960208301846200101f565b9392505050565b7f4e487b7100000000000000000000000000000000000000000000000000000000600052602260045260246000fd5b60006002820490506001821680620014e857607f821691505b60208210811415620014ff57620014fe620014a0565b5b50919050565b60805160a05160c05160e051610100516101205161456d6200155560003960006111ec01526000611d2d01526000611d6f01526000611d4e01526000611cda01526000611d02015261456d6000f3fe608060405234801561001057600080fd5b50600436106101e55760003560e01c806370a082311161010f5780639ab24eb0116100a2578063d505accf11610071578063d505accf146105a6578063dd62ed3e146105c2578063f1127ed8146105f2578063f2fde38b14610622576101e5565b80639ab24eb0146104fa578063a457c2d71461052a578063a9059cbb1461055a578063c3cda5201461058a576101e5565b80638456cb59116100de5780638456cb59146104845780638da5cb5b1461048e5780638e539e8c146104ac57806395d89b41146104dc576101e5565b806370a08231146103fe578063715018a61461042e57806379cc6790146104385780637ecebe0014610454576101e5565b80633a46b1a811610187578063587cde1e11610156578063587cde1e146103645780635c19a95c146103945780635c975abb146103b05780636fcfff45146103ce576101e5565b80633a46b1a8146102f25780633f4ba83a1461032257806340c10f191461032c57806342966c6814610348576101e5565b806323b872dd116101c357806323b872dd14610256578063313ce567146102865780633644e515146102a457806339509351146102c2576101e5565b806306fdde03146101ea578063095ea7b31461020857806318160ddd14610238575b600080fd5b6101f261063e565b6040516101ff9190612deb565b60405180910390f35b610222600480360381019061021d9190612ea6565b6106d0565b60405161022f9190612f01565b60405180910390f35b6102406106ee565b60405161024d9190612f2b565b60405180910390f35b610270600480360381019061026b9190612f46565b6106f8565b60405161027d9190612f01565b60405180910390f35b61028e6107f0565b60405161029b9190612fb5565b60405180910390f35b6102ac6107f9565b6040516102b99190612fe9565b60405180910390f35b6102dc60048036038101906102d79190612ea6565b610808565b6040516102e99190612f01565b60405180910390f35b61030c60048036038101906103079190612ea6565b6108b4565b6040516103199190612f2b565b60405180910390f35b61032a610948565b005b61034660048036038101906103419190612ea6565b6109ce565b005b610362600480360381019061035d9190613004565b610a58565b005b61037e60048036038101906103799190613031565b610a6c565b60405161038b919061306d565b60405180910390f35b6103ae60048036038101906103a99190613031565b610ad5565b005b6103b8610ae9565b6040516103c59190612f01565b60405180910390f35b6103e860048036038101906103e39190613031565b610b00565b6040516103f591906130a7565b60405180910390f35b61041860048036038101906104139190613031565b610b54565b6040516104259190612f2b565b60405180910390f35b610436610b9c565b005b610452600480360381019061044d9190612ea6565b610c24565b005b61046e60048036038101906104699190613031565b610c9f565b60405161047b9190612f2b565b60405180910390f35b61048c610cef565b005b610496610d75565b6040516104a3919061306d565b60405180910390f35b6104c660048036038101906104c19190613004565b610d9f565b6040516104d39190612f2b565b60405180910390f35b6104e4610df5565b6040516104f19190612deb565b60405180910390f35b610514600480360381019061050f9190613031565b610e87565b6040516105219190612f2b565b60405180910390f35b610544600480360381019061053f9190612ea6565b610f98565b6040516105519190612f01565b60405180910390f35b610574600480360381019061056f9190612ea6565b611083565b6040516105819190612f01565b60405180910390f35b6105a4600480360381019061059f919061311a565b6110a1565b005b6105c060048036038101906105bb91906131a7565b6111a5565b005b6105dc60048036038101906105d79190613249565b6112e7565b6040516105e99190612f2b565b60405180910390f35b61060c600480360381019061060791906132b5565b61136e565b604051610619919061336a565b60405180910390f35b61063c60048036038101906106379190613031565b61147e565b005b60606003805461064d906133b4565b80601f0160208091040260200160405190810160405280929190818152602001828054610679906133b4565b80156106c65780601f1061069b576101008083540402835291602001916106c6565b820191906000526020600020905b8154815290600101906020018083116106a957829003601f168201915b5050505050905090565b60006106e46106dd611882565b848461188a565b6001905092915050565b6000600254905090565b6000610705848484611a55565b6000600160008673ffffffffffffffffffffffffffffffffffffffff1673ffffffffffffffffffffffffffffffffffffffff1681526020019081526020016000206000610750611882565b73ffffffffffffffffffffffffffffffffffffffff1673ffffffffffffffffffffffffffffffffffffffff168152602001908152602001600020549050828110156107d0576040517f08c379a00000000000000000000000000000000000000000000000000000000081526004016107c790613458565b60405180910390fd5b6107e4856107dc611882565b85840361188a565b60019150509392505050565b60006012905090565b6000610803611cd6565b905090565b60006108aa610815611882565b848460016000610823611882565b73ffffffffffffffffffffffffffffffffffffffff1673ffffffffffffffffffffffffffffffffffffffff16815260200190815260200160002060008873ffffffffffffffffffffffffffffffffffffffff1673ffffffffffffffffffffffffffffffffffffffff168152602001908152602001600020546108a591906134a7565b61188a565b6001905092915050565b60004382106108f8576040517f08c379a00000000000000000000000000000000000000000000000000000000081526004016108ef90613549565b60405180910390fd5b610940600860008573ffffffffffffffffffffffffffffffffffffffff1673ffffffffffffffffffffffffffffffffffffffff16815260200190815260200160002083611d99565b905092915050565b610950611882565b73ffffffffffffffffffffffffffffffffffffffff1661096e610d75565b73ffffffffffffffffffffffffffffffffffffffff16146109c4576040517f08c379a00000000000000000000000000000000000000000000000000000000081526004016109bb906135b5565b60405180910390fd5b6109cc611ea5565b565b6109d6611882565b73ffffffffffffffffffffffffffffffffffffffff166109f4610d75565b73ffffffffffffffffffffffffffffffffffffffff1614610a4a576040517f08c379a0000000000000000000000000000000000000000000000000000000008152600401610a41906135b5565b60405180910390fd5b610a548282611f47565b5050565b610a69610a63611882565b82611f55565b50565b6000600760008373ffffffffffffffffffffffffffffffffffffffff1673ffffffffffffffffffffffffffffffffffffffff16815260200190815260200160002060009054906101000a900473ffffffffffffffffffffffffffffffffffffffff169050919050565b610ae6610ae0611882565b82611f63565b50565b6000600560009054906101000a900460ff16905090565b6000610b4d600860008473ffffffffffffffffffffffffffffffffffffffff1673ffffffffffffffffffffffffffffffffffffffff168152602001908152602001600020805490506117e4565b9050919050565b60008060008373ffffffffffffffffffffffffffffffffffffffff1673ffffffffffffffffffffffffffffffffffffffff168152602001908152602001600020549050919050565b610ba4611882565b73ffffffffffffffffffffffffffffffffffffffff16610bc2610d75565b73ffffffffffffffffffffffffffffffffffffffff1614610c18576040517f08c379a0000000000000000000000000000000000000000000000000000000008152600401610c0f906135b5565b60405180910390fd5b610c22600061207d565b565b6000610c3783610c32611882565b6112e7565b905081811015610c7c576040517f08c379a0000000000000000000000000000000000000000000000000000000008152600401610c7390613647565b60405180910390fd5b610c9083610c88611882565b84840361188a565b610c9a8383611f55565b505050565b6000610ce8600660008473ffffffffffffffffffffffffffffffffffffffff1673ffffffffffffffffffffffffffffffffffffffff168152602001908152602001600020612143565b9050919050565b610cf7611882565b73ffffffffffffffffffffffffffffffffffffffff16610d15610d75565b73ffffffffffffffffffffffffffffffffffffffff1614610d6b576040517f08c379a0000000000000000000000000000000000000000000000000000000008152600401610d62906135b5565b60405180910390fd5b610d73612151565b565b6000600560019054906101000a900473ffffffffffffffffffffffffffffffffffffffff16905090565b6000438210610de3576040517f08c379a0000000000000000000000000000000000000000000000000000000008152600401610dda90613549565b60405180910390fd5b610dee600983611d99565b9050919050565b606060048054610e04906133b4565b80601f0160208091040260200160405190810160405280929190818152602001828054610e30906133b4565b8015610e7d5780601f10610e5257610100808354040283529160200191610e7d565b820191906000526020600020905b815481529060010190602001808311610e6057829003601f168201915b5050505050905090565b600080600860008473ffffffffffffffffffffffffffffffffffffffff1673ffffffffffffffffffffffffffffffffffffffff16815260200190815260200160002080549050905060008114610f6f57600860008473ffffffffffffffffffffffffffffffffffffffff1673ffffffffffffffffffffffffffffffffffffffff168152602001908152602001600020600182610f239190613667565b81548110610f3457610f3361369b565b5b9060005260206000200160000160049054906101000a90047bffffffffffffffffffffffffffffffffffffffffffffffffffffffff16610f72565b60005b7bffffffffffffffffffffffffffffffffffffffffffffffffffffffff16915050919050565b60008060016000610fa7611882565b73ffffffffffffffffffffffffffffffffffffffff1673ffffffffffffffffffffffffffffffffffffffff16815260200190815260200160002060008573ffffffffffffffffffffffffffffffffffffffff1673ffffffffffffffffffffffffffffffffffffffff16815260200190815260200160002054905082811015611064576040517f08c379a000000000000000000000000000000000000000000000000000000000815260040161105b9061373c565b60405180910390fd5b61107861106f611882565b8585840361188a565b600191505092915050565b6000611097611090611882565b8484611a55565b6001905092915050565b834211156110e4576040517f08c379a00000000000000000000000000000000000000000000000000000000081526004016110db906137a8565b60405180910390fd5b600061114661113e7fe48329057bfd03d55e49b547132e39cffd9c1820ad7b9d4c5307691425d15adf89898960405160200161112394939291906137c8565b604051602081830303815290604052805190602001206121f4565b85858561220e565b905061115181612239565b8614611192576040517f08c379a000000000000000000000000000000000000000000000000000000000815260040161118990613859565b60405180910390fd5b61119c8188611f63565b50505050505050565b834211156111e8576040517f08c379a00000000000000000000000000000000000000000000000000000000081526004016111df906138c5565b60405180910390fd5b60007f00000000000000000000000000000000000000000000000000000000000000008888886112178c612239565b8960405160200161122d969594939291906138e5565b6040516020818303038152906040528051906020012090506000611250826121f4565b905060006112608287878761220e565b90508973ffffffffffffffffffffffffffffffffffffffff168173ffffffffffffffffffffffffffffffffffffffff16146112d0576040517f08c379a00000000000000000000000000000000000000000000000000000000081526004016112c790613992565b60405180910390fd5b6112db8a8a8a61188a565b50505050505050505050565b6000600160008473ffffffffffffffffffffffffffffffffffffffff1673ffffffffffffffffffffffffffffffffffffffff16815260200190815260200160002060008373ffffffffffffffffffffffffffffffffffffffff1673ffffffffffffffffffffffffffffffffffffffff16815260200190815260200160002054905092915050565b611376612d14565b600860008473ffffffffffffffffffffffffffffffffffffffff1673ffffffffffffffffffffffffffffffffffffffff1681526020019081526020016000208263ffffffff16815481106113cd576113cc61369b565b5b906000526020600020016040518060400160405290816000820160009054906101000a900463ffffffff1663ffffffff1663ffffffff1681526020016000820160049054906101000a90047bffffffffffffffffffffffffffffffffffffffffffffffffffffffff167bffffffffffffffffffffffffffffffffffffffffffffffffffffffff167bffffffffffffffffffffffffffffffffffffffffffffffffffffffff1681525050905092915050565b611486611882565b73ffffffffffffffffffffffffffffffffffffffff166114a4610d75565b73ffffffffffffffffffffffffffffffffffffffff16146114fa576040517f08c379a00000000000000000000000000000000000000000000000000000000081526004016114f1906135b5565b60405180910390fd5b600073ffffffffffffffffffffffffffffffffffffffff168173ffffffffffffffffffffffffffffffffffffffff16141561156a576040517f08c379a000000000000000000000000000000000000000000000000000000000815260040161156190613a24565b60405180910390fd5b6115738161207d565b50565b6115808282611603565b611588612297565b7bffffffffffffffffffffffffffffffffffffffffffffffffffffffff166115ae6106ee565b11156115ef576040517f08c379a00000000000000000000000000000000000000000000000000000000081526004016115e690613ab6565b60405180910390fd5b6115fd6009611763836122bb565b50505050565b600073ffffffffffffffffffffffffffffffffffffffff168273ffffffffffffffffffffffffffffffffffffffff161415611673576040517f08c379a000000000000000000000000000000000000000000000000000000000815260040161166a90613b22565b60405180910390fd5b61167f60008383612533565b806002600082825461169191906134a7565b92505081905550806000808473ffffffffffffffffffffffffffffffffffffffff1673ffffffffffffffffffffffffffffffffffffffff16815260200190815260200160002060008282546116e691906134a7565b925050819055508173ffffffffffffffffffffffffffffffffffffffff16600073ffffffffffffffffffffffffffffffffffffffff167fddf252ad1be2c89b69c2b068fc378daa952ba7f163c4a11628f55a4df523b3ef8360405161174b9190612f2b565b60405180910390a361175f6000838361258b565b5050565b6000818361177191906134a7565b905092915050565b60007bffffffffffffffffffffffffffffffffffffffffffffffffffffffff80168211156117dc576040517f08c379a00000000000000000000000000000000000000000000000000000000081526004016117d390613bb4565b60405180910390fd5b819050919050565b600063ffffffff801682111561182f576040517f08c379a000000000000000000000000000000000000000000000000000000000815260040161182690613c46565b60405180910390fd5b819050919050565b505050565b611847838383611867565b61186261185384610a6c565b61185c84610a6c565b8361259b565b505050565b505050565b6000818361187a9190613667565b905092915050565b600033905090565b600073ffffffffffffffffffffffffffffffffffffffff168373ffffffffffffffffffffffffffffffffffffffff1614156118fa576040517f08c379a00000000000000000000000000000000000000000000000000000000081526004016118f190613cd8565b60405180910390fd5b600073ffffffffffffffffffffffffffffffffffffffff168273ffffffffffffffffffffffffffffffffffffffff16141561196a576040517f08c379a000000000000000000000000000000000000000000000000000000000815260040161196190613d6a565b60405180910390fd5b80600160008573ffffffffffffffffffffffffffffffffffffffff1673ffffffffffffffffffffffffffffffffffffffff16815260200190815260200160002060008473ffffffffffffffffffffffffffffffffffffffff1673ffffffffffffffffffffffffffffffffffffffff168152602001908152602001600020819055508173ffffffffffffffffffffffffffffffffffffffff168373ffffffffffffffffffffffffffffffffffffffff167f8c5be1e5ebec7d5bd14f71427d1e84f3dd0314c0f7b2291e5b200ac8c7c3b92583604051611a489190612f2b565b60405180910390a3505050565b600073ffffffffffffffffffffffffffffffffffffffff168373ffffffffffffffffffffffffffffffffffffffff161415611ac5576040517f08c379a0000000000000000000000000000000000000000000000000000000008152600401611abc90613dfc565b60405180910390fd5b600073ffffffffffffffffffffffffffffffffffffffff168273ffffffffffffffffffffffffffffffffffffffff161415611b35576040517f08c379a0000000000000000000000000000000000000000000000000000000008152600401611b2c90613e8e565b60405180910390fd5b611b40838383612533565b60008060008573ffffffffffffffffffffffffffffffffffffffff1673ffffffffffffffffffffffffffffffffffffffff16815260200190815260200160002054905081811015611bc6576040517f08c379a0000000000000000000000000000000000000000000000000000000008152600401611bbd90613f20565b60405180910390fd5b8181036000808673ffffffffffffffffffffffffffffffffffffffff1673ffffffffffffffffffffffffffffffffffffffff16815260200190815260200160002081905550816000808573ffffffffffffffffffffffffffffffffffffffff1673ffffffffffffffffffffffffffffffffffffffff1681526020019081526020016000206000828254611c5991906134a7565b925050819055508273ffffffffffffffffffffffffffffffffffffffff168473ffffffffffffffffffffffffffffffffffffffff167fddf252ad1be2c89b69c2b068fc378daa952ba7f163c4a11628f55a4df523b3ef84604051611cbd9190612f2b565b60405180910390a3611cd084848461258b565b50505050565b60007f0000000000000000000000000000000000000000000000000000000000000000461415611d28577f00000000000000000000000000000000000000000000000000000000000000009050611d96565b611d937f00000000000000000000000000000000000000000000000000000000000000007f00000000000000000000000000000000000000000000000000000000000000007f0000000000000000000000000000000000000000000000000000000000000000612794565b90505b90565b6000808380549050905060005b81811015611e18576000611dba82846127ce565b905084868281548110611dd057611dcf61369b565b5b9060005260206000200160000160009054906101000a900463ffffffff1663ffffffff161115611e0257809250611e12565b600181611e0f91906134a7565b91505b50611da6565b60008214611e7a5784600183611e2e9190613667565b81548110611e3f57611e3e61369b565b5b9060005260206000200160000160049054906101000a90047bffffffffffffffffffffffffffffffffffffffffffffffffffffffff16611e7d565b60005b7bffffffffffffffffffffffffffffffffffffffffffffffffffffffff169250505092915050565b611ead610ae9565b611eec576040517f08c379a0000000000000000000000000000000000000000000000000000000008152600401611ee390613f8c565b60405180910390fd5b6000600560006101000a81548160ff0219169083151502179055507f5db9ee0a495bf2e6ff9c91a7834c1ba4fdd244a5e8aa4e537bd38aeae4b073aa611f30611882565b604051611f3d919061306d565b60405180910390a1565b611f518282611576565b5050565b611f5f82826127f4565b5050565b6000611f6e83610a6c565b90506000611f7b84610b54565b905082600760008673ffffffffffffffffffffffffffffffffffffffff1673ffffffffffffffffffffffffffffffffffffffff16815260200190815260200160002060006101000a81548173ffffffffffffffffffffffffffffffffffffffff021916908373ffffffffffffffffffffffffffffffffffffffff1602179055508273ffffffffffffffffffffffffffffffffffffffff168273ffffffffffffffffffffffffffffffffffffffff168573ffffffffffffffffffffffffffffffffffffffff167f3134e8a2e6d97e929a7e54011ea5485d7d196dd5f0ba4d4ef95803e8e3fc257f60405160405180910390a461207782848361259b565b50505050565b6000600560019054906101000a900473ffffffffffffffffffffffffffffffffffffffff16905081600560016101000a81548173ffffffffffffffffffffffffffffffffffffffff021916908373ffffffffffffffffffffffffffffffffffffffff1602179055508173ffffffffffffffffffffffffffffffffffffffff168173ffffffffffffffffffffffffffffffffffffffff167f8be0079c531659141344cd1fd0a4f28419497f9722a3daafe3b4186f6b6457e060405160405180910390a35050565b600081600001549050919050565b612159610ae9565b15612199576040517f08c379a000000000000000000000000000000000000000000000000000000000815260040161219090613ff8565b60405180910390fd5b6001600560006101000a81548160ff0219169083151502179055507f62e78cea01bee320cd4e420270b5ea74000d11b0c9f74754ebdbfc544b05a2586121dd611882565b6040516121ea919061306d565b60405180910390a1565b6000612207612201611cd6565b83612812565b9050919050565b600080600061221f87878787612845565b9150915061222c81612952565b8192505050949350505050565b600080600660008473ffffffffffffffffffffffffffffffffffffffff1673ffffffffffffffffffffffffffffffffffffffff168152602001908152602001600020905061228681612143565b915061229181612b27565b50919050565b60007bffffffffffffffffffffffffffffffffffffffffffffffffffffffff905090565b6000806000858054905090506000811461232957856001826122dd9190613667565b815481106122ee576122ed61369b565b5b9060005260206000200160000160049054906101000a90047bffffffffffffffffffffffffffffffffffffffffffffffffffffffff1661232c565b60005b7bffffffffffffffffffffffffffffffffffffffffffffffffffffffff16925061235a83858763ffffffff16565b91506000811180156123ad575043866001836123769190613667565b815481106123875761238661369b565b5b9060005260206000200160000160009054906101000a900463ffffffff1663ffffffff16145b1561243a576123bb82611779565b866001836123c99190613667565b815481106123da576123d961369b565b5b9060005260206000200160000160046101000a8154817bffffffffffffffffffffffffffffffffffffffffffffffffffffffff02191690837bffffffffffffffffffffffffffffffffffffffffffffffffffffffff16021790555061252a565b85604051806040016040528061244f436117e4565b63ffffffff16815260200161246385611779565b7bffffffffffffffffffffffffffffffffffffffffffffffffffffffff168152509080600181540180825580915050600190039060005260206000200160009091909190915060008201518160000160006101000a81548163ffffffff021916908363ffffffff16021790555060208201518160000160046101000a8154817bffffffffffffffffffffffffffffffffffffffffffffffffffffffff02191690837bffffffffffffffffffffffffffffffffffffffffffffffffffffffff16021790555050505b50935093915050565b61253b610ae9565b1561257b576040517f08c379a000000000000000000000000000000000000000000000000000000000815260040161257290613ff8565b60405180910390fd5b612586838383611837565b505050565b61259683838361183c565b505050565b8173ffffffffffffffffffffffffffffffffffffffff168373ffffffffffffffffffffffffffffffffffffffff16141580156125d75750600081115b1561278f57600073ffffffffffffffffffffffffffffffffffffffff168373ffffffffffffffffffffffffffffffffffffffff16146126b55760008061265e600860008773ffffffffffffffffffffffffffffffffffffffff1673ffffffffffffffffffffffffffffffffffffffff16815260200190815260200160002061186c856122bb565b915091508473ffffffffffffffffffffffffffffffffffffffff167fdec2bacdd2f05b59de34da9b523dff8be42e5e38e818c82fdb0bae774387a72483836040516126aa929190614018565b60405180910390a250505b600073ffffffffffffffffffffffffffffffffffffffff168273ffffffffffffffffffffffffffffffffffffffff161461278e57600080612737600860008673ffffffffffffffffffffffffffffffffffffffff1673ffffffffffffffffffffffffffffffffffffffff168152602001908152602001600020611763856122bb565b915091508373ffffffffffffffffffffffffffffffffffffffff167fdec2bacdd2f05b59de34da9b523dff8be42e5e38e818c82fdb0bae774387a7248383604051612783929190614018565b60405180910390a250505b5b505050565b600083838346306040516020016127af959493929190614041565b6040516020818303038152906040528051906020012090509392505050565b600060028284186127df91906140c3565b8284166127ec91906134a7565b905092915050565b6127fe8282612b3d565b61280c600961186c836122bb565b50505050565b6000828260405160200161282792919061416c565b60405160208183030381529060405280519060200120905092915050565b6000807f7fffffffffffffffffffffffffffffff5d576e7357a4501ddfe92f46681b20a08360001c1115612880576000600391509150612949565b601b8560ff16141580156128985750601c8560ff1614155b156128aa576000600491509150612949565b6000600187878787604051600081526020016040526040516128cf94939291906141a3565b6020604051602081039080840390855afa1580156128f1573d6000803e3d6000fd5b505050602060405103519050600073ffffffffffffffffffffffffffffffffffffffff168173ffffffffffffffffffffffffffffffffffffffff16141561294057600060019250925050612949565b80600092509250505b94509492505050565b60006004811115612966576129656141e8565b5b816004811115612979576129786141e8565b5b141561298457612b24565b60016004811115612998576129976141e8565b5b8160048111156129ab576129aa6141e8565b5b14156129ec576040517f08c379a00000000000000000000000000000000000000000000000000000000081526004016129e390614263565b60405180910390fd5b60026004811115612a00576129ff6141e8565b5b816004811115612a1357612a126141e8565b5b1415612a54576040517f08c379a0000000000000000000000000000000000000000000000000000000008152600401612a4b906142cf565b60405180910390fd5b60036004811115612a6857612a676141e8565b5b816004811115612a7b57612a7a6141e8565b5b1415612abc576040517f08c379a0000000000000000000000000000000000000000000000000000000008152600401612ab390614361565b60405180910390fd5b600480811115612acf57612ace6141e8565b5b816004811115612ae257612ae16141e8565b5b1415612b23576040517f08c379a0000000000000000000000000000000000000000000000000000000008152600401612b1a906143f3565b60405180910390fd5b5b50565b6001816000016000828254019250508190555050565b600073ffffffffffffffffffffffffffffffffffffffff168273ffffffffffffffffffffffffffffffffffffffff161415612bad576040517f08c379a0000000000000000000000000000000000000000000000000000000008152600401612ba490614485565b60405180910390fd5b612bb982600083612533565b60008060008473ffffffffffffffffffffffffffffffffffffffff1673ffffffffffffffffffffffffffffffffffffffff16815260200190815260200160002054905081811015612c3f576040517f08c379a0000000000000000000000000000000000000000000000000000000008152600401612c3690614517565b60405180910390fd5b8181036000808573ffffffffffffffffffffffffffffffffffffffff1673ffffffffffffffffffffffffffffffffffffffff168152602001908152602001600020819055508160026000828254612c969190613667565b92505081905550600073ffffffffffffffffffffffffffffffffffffffff168373ffffffffffffffffffffffffffffffffffffffff167fddf252ad1be2c89b69c2b068fc378daa952ba7f163c4a11628f55a4df523b3ef84604051612cfb9190612f2b565b60405180910390a3612d0f8360008461258b565b505050565b6040518060400160405280600063ffffffff16815260200160007bffffffffffffffffffffffffffffffffffffffffffffffffffffffff1681525090565b600081519050919050565b600082825260208201905092915050565b60005b83811015612d8c578082015181840152602081019050612d71565b83811115612d9b576000848401525b50505050565b6000601f19601f8301169050919050565b6000612dbd82612d52565b612dc78185612d5d565b9350612dd7818560208601612d6e565b612de081612da1565b840191505092915050565b60006020820190508181036000830152612e058184612db2565b905092915050565b600080fd5b600073ffffffffffffffffffffffffffffffffffffffff82169050919050565b6000612e3d82612e12565b9050919050565b612e4d81612e32565b8114612e5857600080fd5b50565b600081359050612e6a81612e44565b92915050565b6000819050919050565b612e8381612e70565b8114612e8e57600080fd5b50565b600081359050612ea081612e7a565b92915050565b60008060408385031215612ebd57612ebc612e0d565b5b6000612ecb85828601612e5b565b9250506020612edc85828601612e91565b9150509250929050565b60008115159050919050565b612efb81612ee6565b82525050565b6000602082019050612f166000830184612ef2565b92915050565b612f2581612e70565b82525050565b6000602082019050612f406000830184612f1c565b92915050565b600080600060608486031215612f5f57612f5e612e0d565b5b6000612f6d86828701612e5b565b9350506020612f7e86828701612e5b565b9250506040612f8f86828701612e91565b9150509250925092565b600060ff82169050919050565b612faf81612f99565b82525050565b6000602082019050612fca6000830184612fa6565b92915050565b6000819050919050565b612fe381612fd0565b82525050565b6000602082019050612ffe6000830184612fda565b92915050565b60006020828403121561301a57613019612e0d565b5b600061302884828501612e91565b91505092915050565b60006020828403121561304757613046612e0d565b5b600061305584828501612e5b565b91505092915050565b61306781612e32565b82525050565b6000602082019050613082600083018461305e565b92915050565b600063ffffffff82169050919050565b6130a181613088565b82525050565b60006020820190506130bc6000830184613098565b92915050565b6130cb81612f99565b81146130d657600080fd5b50565b6000813590506130e8816130c2565b92915050565b6130f781612fd0565b811461310257600080fd5b50565b600081359050613114816130ee565b92915050565b60008060008060008060c0878903121561313757613136612e0d565b5b600061314589828a01612e5b565b965050602061315689828a01612e91565b955050604061316789828a01612e91565b945050606061317889828a016130d9565b935050608061318989828a01613105565b92505060a061319a89828a01613105565b9150509295509295509295565b600080600080600080600060e0888a0312156131c6576131c5612e0d565b5b60006131d48a828b01612e5b565b97505060206131e58a828b01612e5b565b96505060406131f68a828b01612e91565b95505060606132078a828b01612e91565b94505060806132188a828b016130d9565b93505060a06132298a828b01613105565b92505060c061323a8a828b01613105565b91505092959891949750929550565b600080604083850312156132605761325f612e0d565b5b600061326e85828601612e5b565b925050602061327f85828601612e5b565b9150509250929050565b61329281613088565b811461329d57600080fd5b50565b6000813590506132af81613289565b92915050565b600080604083850312156132cc576132cb612e0d565b5b60006132da85828601612e5b565b92505060206132eb858286016132a0565b9150509250929050565b6132fe81613088565b82525050565b60007bffffffffffffffffffffffffffffffffffffffffffffffffffffffff82169050919050565b61333581613304565b82525050565b60408201600082015161335160008501826132f5565b506020820151613364602085018261332c565b50505050565b600060408201905061337f600083018461333b565b92915050565b7f4e487b7100000000000000000000000000000000000000000000000000000000600052602260045260246000fd5b600060028204905060018216806133cc57607f821691505b602082108114156133e0576133df613385565b5b50919050565b7f45524332303a207472616e7366657220616d6f756e742065786365656473206160008201527f6c6c6f77616e6365000000000000000000000000000000000000000000000000602082015250565b6000613442602883612d5d565b915061344d826133e6565b604082019050919050565b6000602082019050818103600083015261347181613435565b9050919050565b7f4e487b7100000000000000000000000000000000000000000000000000000000600052601160045260246000fd5b60006134b282612e70565b91506134bd83612e70565b9250827fffffffffffffffffffffffffffffffffffffffffffffffffffffffffffffffff038211156134f2576134f1613478565b5b828201905092915050565b7f4552433230566f7465733a20626c6f636b206e6f7420796574206d696e656400600082015250565b6000613533601f83612d5d565b915061353e826134fd565b602082019050919050565b6000602082019050818103600083015261356281613526565b9050919050565b7f4f776e61626c653a2063616c6c6572206973206e6f7420746865206f776e6572600082015250565b600061359f602083612d5d565b91506135aa82613569565b602082019050919050565b600060208201905081810360008301526135ce81613592565b9050919050565b7f45524332303a206275726e20616d6f756e74206578636565647320616c6c6f7760008201527f616e636500000000000000000000000000000000000000000000000000000000602082015250565b6000613631602483612d5d565b915061363c826135d5565b604082019050919050565b6000602082019050818103600083015261366081613624565b9050919050565b600061367282612e70565b915061367d83612e70565b9250828210156136905761368f613478565b5b828203905092915050565b7f4e487b7100000000000000000000000000000000000000000000000000000000600052603260045260246000fd5b7f45524332303a2064656372656173656420616c6c6f77616e63652062656c6f7760008201527f207a65726f000000000000000000000000000000000000000000000000000000602082015250565b6000613726602583612d5d565b9150613731826136ca565b604082019050919050565b6000602082019050818103600083015261375581613719565b9050919050565b7f4552433230566f7465733a207369676e61747572652065787069726564000000600082015250565b6000613792601d83612d5d565b915061379d8261375c565b602082019050919050565b600060208201905081810360008301526137c181613785565b9050919050565b60006080820190506137dd6000830187612fda565b6137ea602083018661305e565b6137f76040830185612f1c565b6138046060830184612f1c565b95945050505050565b7f4552433230566f7465733a20696e76616c6964206e6f6e636500000000000000600082015250565b6000613843601983612d5d565b915061384e8261380d565b602082019050919050565b6000602082019050818103600083015261387281613836565b9050919050565b7f45524332305065726d69743a206578706972656420646561646c696e65000000600082015250565b60006138af601d83612d5d565b91506138ba82613879565b602082019050919050565b600060208201905081810360008301526138de816138a2565b9050919050565b600060c0820190506138fa6000830189612fda565b613907602083018861305e565b613914604083018761305e565b6139216060830186612f1c565b61392e6080830185612f1c565b61393b60a0830184612f1c565b979650505050505050565b7f45524332305065726d69743a20696e76616c6964207369676e61747572650000600082015250565b600061397c601e83612d5d565b915061398782613946565b602082019050919050565b600060208201905081810360008301526139ab8161396f565b9050919050565b7f4f776e61626c653a206e6577206f776e657220697320746865207a65726f206160008201527f6464726573730000000000000000000000000000000000000000000000000000602082015250565b6000613a0e602683612d5d565b9150613a19826139b2565b604082019050919050565b60006020820190508181036000830152613a3d81613a01565b9050919050565b7f4552433230566f7465733a20746f74616c20737570706c79207269736b73206f60008201527f766572666c6f77696e6720766f74657300000000000000000000000000000000602082015250565b6000613aa0603083612d5d565b9150613aab82613a44565b604082019050919050565b60006020820190508181036000830152613acf81613a93565b9050919050565b7f45524332303a206d696e7420746f20746865207a65726f206164647265737300600082015250565b6000613b0c601f83612d5d565b9150613b1782613ad6565b602082019050919050565b60006020820190508181036000830152613b3b81613aff565b9050919050565b7f53616665436173743a2076616c756520646f65736e27742066697420696e203260008201527f3234206269747300000000000000000000000000000000000000000000000000602082015250565b6000613b9e602783612d5d565b9150613ba982613b42565b604082019050919050565b60006020820190508181036000830152613bcd81613b91565b9050919050565b7f53616665436173743a2076616c756520646f65736e27742066697420696e203360008201527f3220626974730000000000000000000000000000000000000000000000000000602082015250565b6000613c30602683612d5d565b9150613c3b82613bd4565b604082019050919050565b60006020820190508181036000830152613c5f81613c23565b9050919050565b7f45524332303a20617070726f76652066726f6d20746865207a65726f2061646460008201527f7265737300000000000000000000000000000000000000000000000000000000602082015250565b6000613cc2602483612d5d565b9150613ccd82613c66565b604082019050919050565b60006020820190508181036000830152613cf181613cb5565b9050919050565b7f45524332303a20617070726f766520746f20746865207a65726f20616464726560008201527f7373000000000000000000000000000000000000000000000000000000000000602082015250565b6000613d54602283612d5d565b9150613d5f82613cf8565b604082019050919050565b60006020820190508181036000830152613d8381613d47565b9050919050565b7f45524332303a207472616e736665722066726f6d20746865207a65726f20616460008201527f6472657373000000000000000000000000000000000000000000000000000000602082015250565b6000613de6602583612d5d565b9150613df182613d8a565b604082019050919050565b60006020820190508181036000830152613e1581613dd9565b9050919050565b7f45524332303a207472616e7366657220746f20746865207a65726f206164647260008201527f6573730000000000000000000000000000000000000000000000000000000000602082015250565b6000613e78602383612d5d565b9150613e8382613e1c565b604082019050919050565b60006020820190508181036000830152613ea781613e6b565b9050919050565b7f45524332303a207472616e7366657220616d6f756e742065786365656473206260008201527f616c616e63650000000000000000000000000000000000000000000000000000602082015250565b6000613f0a602683612d5d565b9150613f1582613eae565b604082019050919050565b60006020820190508181036000830152613f3981613efd565b9050919050565b7f5061757361626c653a206e6f7420706175736564000000000000000000000000600082015250565b6000613f76601483612d5d565b9150613f8182613f40565b602082019050919050565b60006020820190508181036000830152613fa581613f69565b9050919050565b7f5061757361626c653a2070617573656400000000000000000000000000000000600082015250565b6000613fe2601083612d5d565b9150613fed82613fac565b602082019050919050565b6000602082019050818103600083015261401181613fd5565b9050919050565b600060408201905061402d6000830185612f1c565b61403a6020830184612f1c565b9392505050565b600060a0820190506140566000830188612fda565b6140636020830187612fda565b6140706040830186612fda565b61407d6060830185612f1c565b61408a608083018461305e565b9695505050505050565b7f4e487b7100000000000000000000000000000000000000000000000000000000600052601260045260246000fd5b60006140ce82612e70565b91506140d983612e70565b9250826140e9576140e8614094565b5b828204905092915050565b600081905092915050565b7f1901000000000000000000000000000000000000000000000000000000000000600082015250565b60006141356002836140f4565b9150614140826140ff565b600282019050919050565b6000819050919050565b61416661416182612fd0565b61414b565b82525050565b600061417782614128565b91506141838285614155565b6020820191506141938284614155565b6020820191508190509392505050565b60006080820190506141b86000830187612fda565b6141c56020830186612fa6565b6141d26040830185612fda565b6141df6060830184612fda565b95945050505050565b7f4e487b7100000000000000000000000000000000000000000000000000000000600052602160045260246000fd5b7f45434453413a20696e76616c6964207369676e61747572650000000000000000600082015250565b600061424d601883612d5d565b915061425882614217565b602082019050919050565b6000602082019050818103600083015261427c81614240565b9050919050565b7f45434453413a20696e76616c6964207369676e6174757265206c656e67746800600082015250565b60006142b9601f83612d5d565b91506142c482614283565b602082019050919050565b600060208201905081810360008301526142e8816142ac565b9050919050565b7f45434453413a20696e76616c6964207369676e6174757265202773272076616c60008201527f7565000000000000000000000000000000000000000000000000000000000000602082015250565b600061434b602283612d5d565b9150614356826142ef565b604082019050919050565b6000602082019050818103600083015261437a8161433e565b9050919050565b7f45434453413a20696e76616c6964207369676e6174757265202776272076616c60008201527f7565000000000000000000000000000000000000000000000000000000000000602082015250565b60006143dd602283612d5d565b91506143e882614381565b604082019050919050565b6000602082019050818103600083015261440c816143d0565b9050919050565b7f45524332303a206275726e2066726f6d20746865207a65726f2061646472657360008201527f7300000000000000000000000000000000000000000000000000000000000000602082015250565b600061446f602183612d5d565b915061447a82614413565b604082019050919050565b6000602082019050818103600083015261449e81614462565b9050919050565b7f45524332303a206275726e20616d6f756e7420657863656564732062616c616e60008201527f6365000000000000000000000000000000000000000000000000000000000000602082015250565b6000614501602283612d5d565b915061450c826144a5565b604082019050919050565b60006020820190508181036000830152614530816144f4565b905091905056fea26469706673582212209924286c073740cabab9798bf42625b16d65b1a23752833cd41e8bb7aa1282a964736f6c634300080b0033",
  "immutableReferences": {
    "1580": [
      {
        "length": 32,
        "start": 4588
      }
    ],
    "2226": [
      {
        "length": 32,
        "start": 7426
      }
    ],
    "2228": [
      {
        "length": 32,
        "start": 7386
      }
    ],
    "2230": [
      {
        "length": 32,
        "start": 7502
      }
    ],
    "2232": [
      {
        "length": 32,
        "start": 7535
      }
    ],
    "2234": [
      {
        "length": 32,
        "start": 7469
      }
    ]
  },
  "source": "// SPDX-License-Identifier: MIT\npragma solidity ^0.8.2;\n\nimport \"@openzeppelin/contracts/token/ERC20/ERC20.sol\";\nimport \"@openzeppelin/contracts/token/ERC20/extensions/ERC20Burnable.sol\";\nimport \"@openzeppelin/contracts/security/Pausable.sol\";\nimport \"@openzeppelin/contracts/access/Ownable.sol\";\nimport \"@openzeppelin/contracts/token/ERC20/extensions/draft-ERC20Permit.sol\";\nimport \"@openzeppelin/contracts/token/ERC20/extensions/ERC20Votes.sol\";\n\n/// @custom:security-contact anton.zaharia@picfair.com\ncontract WIP is ERC20, ERC20Burnable, Pausable, Ownable, ERC20Permit, ERC20Votes {\n  constructor() ERC20(\"WIP\", \"WIP\") ERC20Permit(\"WIP\") {\n    _mint(msg.sender, 1000000 * 10 ** decimals());\n  }\n\n  function pause() public onlyOwner {\n    _pause();\n  }\n\n  function unpause() public onlyOwner {\n    _unpause();\n  }\n\n  function mint(address to, uint256 amount) public onlyOwner {\n    _mint(to, amount);\n  }\n\n  function _beforeTokenTransfer(address from, address to, uint256 amount)\n  internal\n  whenNotPaused\n  override\n  {\n    super._beforeTokenTransfer(from, to, amount);\n  }\n\n  // The following functions are overrides required by Solidity.\n\n  function _afterTokenTransfer(address from, address to, uint256 amount)\n  internal\n  override(ERC20, ERC20Votes)\n  {\n    super._afterTokenTransfer(from, to, amount);\n  }\n\n  function _mint(address to, uint256 amount)\n  internal\n  override(ERC20, ERC20Votes)\n  {\n    super._mint(to, amount);\n  }\n\n  function _burn(address account, uint256 amount)\n  internal\n  override(ERC20, ERC20Votes)\n  {\n    super._burn(account, amount);\n  }\n}",
  "sourcePath": "/Users/antonzaharia/apps/w-i-p/contracts/WIP.sol",
  "compiler": {
    "name": "solc",
    "version": "0.8.11+commit.d7f03943.Emscripten.clang"
  },
  "schemaVersion": "3.4.4",
  "updatedAt": "2022-01-28T16:21:40.422Z",
  "networkType": "ethereum",
  "devdoc": {
    "custom:security-contact": "anton.zaharia@picfair.com",
    "kind": "dev",
    "methods": {
      "DOMAIN_SEPARATOR()": {
        "details": "See {IERC20Permit-DOMAIN_SEPARATOR}."
      },
      "allowance(address,address)": {
        "details": "See {IERC20-allowance}."
      },
      "approve(address,uint256)": {
        "details": "See {IERC20-approve}. Requirements: - `spender` cannot be the zero address."
      },
      "balanceOf(address)": {
        "details": "See {IERC20-balanceOf}."
      },
      "burn(uint256)": {
        "details": "Destroys `amount` tokens from the caller. See {ERC20-_burn}."
      },
      "burnFrom(address,uint256)": {
        "details": "Destroys `amount` tokens from `account`, deducting from the caller's allowance. See {ERC20-_burn} and {ERC20-allowance}. Requirements: - the caller must have allowance for ``accounts``'s tokens of at least `amount`."
      },
      "checkpoints(address,uint32)": {
        "details": "Get the `pos`-th checkpoint for `account`."
      },
      "decimals()": {
        "details": "Returns the number of decimals used to get its user representation. For example, if `decimals` equals `2`, a balance of `505` tokens should be displayed to a user as `5.05` (`505 / 10 ** 2`). Tokens usually opt for a value of 18, imitating the relationship between Ether and Wei. This is the value {ERC20} uses, unless this function is overridden; NOTE: This information is only used for _display_ purposes: it in no way affects any of the arithmetic of the contract, including {IERC20-balanceOf} and {IERC20-transfer}."
      },
      "decreaseAllowance(address,uint256)": {
        "details": "Atomically decreases the allowance granted to `spender` by the caller. This is an alternative to {approve} that can be used as a mitigation for problems described in {IERC20-approve}. Emits an {Approval} event indicating the updated allowance. Requirements: - `spender` cannot be the zero address. - `spender` must have allowance for the caller of at least `subtractedValue`."
      },
      "delegate(address)": {
        "details": "Delegate votes from the sender to `delegatee`."
      },
      "delegateBySig(address,uint256,uint256,uint8,bytes32,bytes32)": {
        "details": "Delegates votes from signer to `delegatee`"
      },
      "delegates(address)": {
        "details": "Get the address `account` is currently delegating to."
      },
      "getPastTotalSupply(uint256)": {
        "details": "Retrieve the `totalSupply` at the end of `blockNumber`. Note, this value is the sum of all balances. It is but NOT the sum of all the delegated votes! Requirements: - `blockNumber` must have been already mined"
      },
      "getPastVotes(address,uint256)": {
        "details": "Retrieve the number of votes for `account` at the end of `blockNumber`. Requirements: - `blockNumber` must have been already mined"
      },
      "getVotes(address)": {
        "details": "Gets the current votes balance for `account`"
      },
      "increaseAllowance(address,uint256)": {
        "details": "Atomically increases the allowance granted to `spender` by the caller. This is an alternative to {approve} that can be used as a mitigation for problems described in {IERC20-approve}. Emits an {Approval} event indicating the updated allowance. Requirements: - `spender` cannot be the zero address."
      },
      "name()": {
        "details": "Returns the name of the token."
      },
      "nonces(address)": {
        "details": "See {IERC20Permit-nonces}."
      },
      "numCheckpoints(address)": {
        "details": "Get number of checkpoints for `account`."
      },
      "owner()": {
        "details": "Returns the address of the current owner."
      },
      "paused()": {
        "details": "Returns true if the contract is paused, and false otherwise."
      },
      "permit(address,address,uint256,uint256,uint8,bytes32,bytes32)": {
        "details": "See {IERC20Permit-permit}."
      },
      "renounceOwnership()": {
        "details": "Leaves the contract without owner. It will not be possible to call `onlyOwner` functions anymore. Can only be called by the current owner. NOTE: Renouncing ownership will leave the contract without an owner, thereby removing any functionality that is only available to the owner."
      },
      "symbol()": {
        "details": "Returns the symbol of the token, usually a shorter version of the name."
      },
      "totalSupply()": {
        "details": "See {IERC20-totalSupply}."
      },
      "transfer(address,uint256)": {
        "details": "See {IERC20-transfer}. Requirements: - `recipient` cannot be the zero address. - the caller must have a balance of at least `amount`."
      },
      "transferFrom(address,address,uint256)": {
        "details": "See {IERC20-transferFrom}. Emits an {Approval} event indicating the updated allowance. This is not required by the EIP. See the note at the beginning of {ERC20}. Requirements: - `sender` and `recipient` cannot be the zero address. - `sender` must have a balance of at least `amount`. - the caller must have allowance for ``sender``'s tokens of at least `amount`."
      },
      "transferOwnership(address)": {
        "details": "Transfers ownership of the contract to a new account (`newOwner`). Can only be called by the current owner."
      }
    },
    "version": 1
  },
  "userdoc": {
    "kind": "user",
    "methods": {},
    "version": 1
  }
}